:100000000C94BE000C94DB000C94DB000C94DB0021
:100010000C94DB000C94DB000C94DB000C94DB00F4
:100020000C94DB000C94DB000C94DB000C94DB00E4
:100030000C94DB000C9469050C9492050C94DB0085
:100040000C94DB000C94DB000C94DB000C94DB00C4
:100050000C94DB00084AD73B3BCE016E84BCBFFD4D
:10006000C12F3D6C74319ABD56833DDA3D00C77F88
:1000700011BED9E4BB4C3E916BAAAABE0000008021
:100080003F0000407A10F35A00A0724E1809001089
:10009000A5D4E80000E87648170000E40B540200FD
:1000A00000CA9A3B000000E1F50500008096980028
:1000B000000040420F000000A08601000000102751
:1000C00000000000E80300000000640000000000E1
:1000D0000A00000000000100000000002C76D88813
:1000E000DC674F0823DFC1DFAE59E1B1B796E5E326
:1000F000E453C63AE651997696E8E6C28426EB893F
:100100008C9B62ED407C6FFCEFBC9C9F40F2BAA5DB
:100110006FA5F490055A2AF75C936B6CF9676DC173
:100120001BFCE0E40D47FEF520E6B500D0ED902E77
:100130000300943577050080841E080000204E0AD5
:10014000000000C80C333333330F986E1283114113
:10015000EF8D2114893BE65516CFFEE6DB18D184DE
:100160004B381BF77C1D901DA4BBE4242032847205
:100170005E228100C9F124ECA1E53D2711241FBEB8
:10018000CFE5D8E0DEBFCDBF10E0A0E6B0E0E6E608
:10019000F5E102C005900D92A436B107D9F720E031
:1001A000A4E6B0E001C01D92A73BB207E1F70E94B0
:1001B0003B030C94B10A0C940000DF92EF92FF9283
:1001C0000F931F93CF93DF93182FD62ED42FC52FC5
:1001D000662351F180ED0E94D704812F0E942105F2
:1001E00083E08A95F1F7000081ED0E94D7040D2F7E
:1001F0001C2FC0E0D0E0ED2CF12CE1E0EE1AF1086C
:10020000CE15DF0529F40E945305F801808304C050
:100210000E943D05F801808321960F5F1F4FCD1589
:1002200078F30E94140501C0D12C8D2DDF91CF9160
:100230001F910F91FF90EF90DF900895AB0161E067
:100240000E94DD000895FF920F931F93CF93DF93D9
:10025000C82F062FF42E152F662389F080ED0E94FB
:10026000D7048C2F0E942105CF2DD12F10E089912A
:100270000E9421051F5F1013FACF0E941405DF9121
:10028000CF911F910F91FF900895CF93DF931F920D
:10029000CDB7DEB76983AE014F5F5F4F61E00E946B
:1002A00023010F90DF91CF910895EF92FF920F936A
:1002B0001F93CF93DF931F92CDB7DEB7182FE62E93
:1002C000F42E022F442391F11982BE016F5F7F4FFC
:1002D0000E941E01882351F16E2D70E06F19710983
:1002E0006F5F7F4FE1E0F0E0AF0102C0440F551FA8
:1002F000FA94E2F741505109062E02C0440F551FEF
:100300000A94E2F7202F30E0C90102C0880F991F3C
:100310006A95E2F7BC01942F909589818923462341
:10032000682F642B6983812F0E9445010F90DF9114
:10033000CF911F910F91FF90EF900895FF920F932F
:100340001F93CF93DF931F92CDB7DEB7182F062FE1
:10035000F42EBE016F5F7F4F0E941E01FF2059F0F7
:1003600021E030E0B90102C0660F771F0A95E2F77D
:100370008981682B0BC021E030E0B90102C0660F13
:10038000771F0A95E2F76095898168236983812F39
:100390000E9445010F90DF91CF911F910F91FF9027
:1003A000089540E066E08BE60E949E0108950E9459
:1003B000D30483E08A95F1F7000087EA91E601977C
:1003C000F1F700C000000E94D10183EC99E0019791
:1003D000F1F700C0000021E043E062E08BE60E94FC
:1003E000550123E043E062E08AE10E94550164E0A8
:1003F00089E10E94450123E042E064E08BE10E9434
:10040000550120E042E064E08CE10E94550108952E
:100410008F929F92AF92BF92CF92DF92EF92FF9214
:100420000F931F93CF93DF934C015B016A01E901A6
:1004300049EA50E06EE08BE30E94DD002091A900C4
:100440008091AA0090E0922BF40191838083209107
:10045000AB008091AC0090E0922BF50191838083FA
:100460002091AD008091AE0090E0922BF601918337
:1004700080832091B1008091B20090E0922B99830B
:1004800088832091B3008091B40090E0922BF80112
:10049000918380832091B5008091B60090E0922BEB
:1004A000F70191838083DF91CF911F910F91FF908E
:1004B000EF90DF90CF90BF90AF909F908F90089576
:1004C0002F923F924F925F926F927F928F929F9264
:1004D000AF92BF92CF92DF92EF92FF920F931F9352
:1004E000CF93DF93CDB7DEB72C970FB6F894DEBF6E
:1004F0000FBECDBF3C014B015A0169012801170114
:100500001A8219821C821B821E821D8218861F82FB
:100510001A8619861C861B86CE010B967C018E01DD
:10052000075F1F4F9E01295F3F4FAE014B5F5F4F3B
:10053000BE016D5F7F4F0A970E94080269817A8130
:10054000882777FD8095982F0E941C0720E030E0D7
:1005500040E858E30E94D407F301608371838283EB
:1005600093836B817C81882777FD8095982F0E94EB
:100570001C0720E030E040E858E30E94D407F40173
:1005800060837183828393836D817E81882777FD69
:100590008095982F0E941C0720E030E040E858E347
:1005A0000E94D407F50160837183828393836F81F6
:1005B0007885882777FD8095982F0E941C0720E07A
:1005C00030E048E051E40E94EC0523E333E343E8E4
:1005D00051E40E94B206F6016083718382839383A3
:1005E00069857A85882777FD8095982F0E941C075A
:1005F00020E030E048E950E40E94EB0523E333E3D8
:1006000043E851E40E94B206F20160837183828361
:1006100093836B857C85882777FD8095982F0E9432
:100620001C0720E030E044EA51E40E94EC0523E39B
:1006300033E343E851E40E94B206F1016083718321
:10064000828393832C960FB6F894DEBF0FBECDBF86
:10065000DF91CF911F910F91FF90EF90DF90CF909E
:10066000BF90AF909F908F907F906F905F904F90D2
:100670003F902F900895CF93DF93CDB7DEB7EC97DF
:100680000FB6F894DEBF0FBECDBF1A8219821C824E
:100690001B821E821D8218861F821A8619861C865E
:1006A0001B861D861E861F86188A198A1A8A1B8A2F
:1006B0001C8A1D8A1E8A1F8A188E198E1A8E1B8EFE
:1006C0001C8E1D8E1E8E1F8E18A219A21AA21BA28E
:1006D0001CA2CE010B967C018E01075F1F4F9E016D
:1006E000295F3F4FAE014B5F5F4FBE016D5F7F4F94
:1006F0000A970E940802CE0181967C010C5E1F4F72
:100700009E01275E3F4FAE014B5E5F4FBE016F5EA5
:100710007F4F44970E9460028FE090E00E94B705EF
:1007200078940E94D7019FEF2FE382E09150204000
:100730008040E1F700C00000812C912CA12CB12C4D
:10074000412C512C3201CE010B967C018E01075FAA
:100750001F4F9E01295F3F4FAE014B5F5F4FBE01B0
:100760006D5F7F4F0A970E940802CE0181967C013F
:100770000C5E1F4F9E01275E3F4FAE014B5E5F4FE9
:10078000BE016F5E7F4F44970E9460022D893E89B3
:100790004F89588D69897A898B899C890E945F0667
:1007A0002BED3FE049E450E40E94EC0521EE3EE2EF
:1007B00045E652E40E94D40769AB7AAB8BAB9CABA5
:1007C00029EC3EE84DE05AE3698D7A8D8B8D9C8D46
:1007D0000E94D40729A93AA94BA95CA90E94EC055B
:1007E0006DAB7EAB8FAB98AF28E431EE4AE75FE3A9
:1007F0000E94D4076B017C012AE037ED43EA5CE3F9
:1008000069A97AA98BA99CA90E94D4079B01AC0174
:10081000C701B6010E94EC0569AF7AAF8BAF9CAF00
:100820009B01AC0160E070E084E393E40E94EB057F
:10083000362E272E8FA798AB29EC3EE84DE05AE3E1
:100840000E94D4079B01AC01C301B2010E94EC05D8
:100850002B013C01282D392D4A2D5B2D632D722D46
:100860008FA598A90E94EB0529EC3EE84DE05AE3DC
:100870000E94B2066B017C012DEC3CEC4CE45FE382
:10088000632D722D8FA598A90E94D4074B015C019E
:100890002AE037ED43EA5BE3C301B2010E94D407CB
:1008A0009B01AC01C501B4010E94EC054B015C0148
:1008B0002AE037ED43E25CE3C701B6010E94D407AA
:1008C0009B01AC01C501B4010E94EC054B015C0128
:1008D000085F1F4F25E043E069A97AA98BA99CA96D
:1008E0000E943A08C8010E94DC0580E20E94CB0504
:1008F00025E043E06DA97EA98FA998AD0E943A0832
:10090000C8010E94DC0580E20E94CB0525E043E09F
:1009100069AD7AAD8BAD9CAD0E943A08C8010E94CA
:10092000DC0580E20E94CB0525E043E0632D722DBB
:100930008FA598A90E943A08C8010E94DC0580E2B0
:100940000E94CB0525E043E0C301B2010E943A08B2
:10095000C8010E94DC0580E20E94CB0525E043E04F
:10096000C701B6010E943A08C8010E94DC0580E276
:100970000E94CB0525E043E0C501B4010E943A087E
:10098000C8010E94DC0580E20E94CB0580E690E071
:100990000E94DC0580E690E00E94DC05832C922C0E
:1009A000AFA4B8A8D0CE11B88CE080B9089594EA6D
:1009B00096BF4FEF50E060E070E006B607FC06C05F
:1009C0004150510961097109C0F704C0452B462BFC
:1009D000472B11F191B1987F983011F09031F1F4DB
:1009E00083B984E886BF8FEF90E0A0E0B0E006B660
:1009F00007FC05C00197A109B109C8F704C0892BFC
:100A00008A2B8B2B69F091B1987F983159F081E056
:100A1000903449F480E0089581E0089581E00895DC
:100A200081E0089580E0089584E986BF80E090E049
:100A300006B604FE05C00196811521E09207C1F7B4
:100A4000089583B984E886BF8FEF90E0A0E0B0E01E
:100A500006B607FC05C00197A109B109C8F704C093
:100A6000892B8A2B8B2B39F091B1987F81E09832BA
:100A700019F480E0089581E0089584EC86BF8FEF3B
:100A800090E0A0E0B0E006B607FC05C00197A10920
:100A9000B109C8F704C0892B8A2B8B2B11F083B1C5
:100AA000089580E0089584E886BF8FEF90E0A0E08D
:100AB000B0E006B607FC05C00197A109B109C8F767
:100AC00004C0892B8A2B8B2B11F083B1089580E011
:100AD00008951F920F920FB60F9211242F938F93A8
:100AE0009F93EF93FF938BB12CB18871E0916600D7
:100AF000EF5FEF7190916500E91739F0E0936600C0
:100B0000F0E0E759FF4F208301C082E0809364004A
:100B1000FF91EF919F918F912F910F900FBE0F90AA
:100B20001F9018951F920F920FB60F9211248F935A
:100B30009F93EF93FF9390916800809167009817BF
:100B400061F0E0916700EF5FEF71E0936700F0E024
:100B5000E757FF4F80818CB901C05598FF91EF9105
:100B60009F918F910F900FBE0F901F90189510922C
:100B70006800109267001092660010926500992339
:100B80001CF422E02BB99F7790BD89B988E98AB916
:100B900086E880BD0895209168002F5F2F719091A5
:100BA00067002917E1F3E22FF0E0E757FF4F80835A
:100BB00020936800559A0895CF93DF93EC018881C4
:100BC000882331F021960E94CB0589918111FBCFBA
:100BD000DF91CF9108955058BB27AA270ED0A3C10B
:100BE00094D130F099D120F031F49F3F11F41EF4EC
:100BF00064C10EF4E095E7FB5AC1E92FA5D180F35B
:100C0000BA17620773078407950718F071F49EF509
:100C1000BDC10EF4E0950B2EBA2FA02D0B01B9012A
:100C200090010C01CA01A0011124FF27591B99F062
:100C3000593F50F4503E68F11A16F040A22F232F6E
:100C4000342F4427585FF3CF469537952795A795BE
:100C5000F0405395C9F77EF41F16BA0B620B730B65
:100C6000840BBAF09150A1F0FF0FBB1F661F771FD6
:100C7000881FC2F70EC0BA0F621F731F841F48F48B
:100C8000879577956795B795F7959E3F08F0B3CF11
:100C90009395880F08F09927EE0F979587950895FB
:100CA00034D158F080E891E009F49EEF35D128F076
:100CB00040E851E059F45EEF09C0FFC067C1E92F79
:100CC000E07842D168F3092E052AC1F326173707C9
:100CD0004807590738F00E2E07F8E02569F0E0259F
:100CE000E0640AC0EF6307F8009407FADB01B9017A
:100CF0009D01DC01CA01AD01EF9343D014D10AD0AC
:100D00005F91552331F02BED3FE049E450FD49EC74
:100D100063CF0895DF93DD27B92FBF7740E85FE306
:100D20001616170648075B0710F4D92F36D19F9384
:100D30008F937F936F939BD1E4E5F0E0C1D0F3D024
:100D40002F913F914F915F913BD1DD2349F0905816
:100D5000A2EA2AED3FE049EC5FE3D0785D274DDF62
:100D6000DF91E1C00CD0DFC0D7D040F0CED030F062
:100D700021F45F3F19F09BC0511109C19EC0E4D01E
:100D800098F39923C9F35523B1F3951B550BBB2752
:100D9000AA2762177307840738F09F5F5F4F220FFF
:100DA000331F441FAA1FA9F333D00E2E3AF0E0E8F8
:100DB00030D091505040E695001CCAF729D0FE2F44
:100DC00027D0660F771F881FBB1F261737074807D6
:100DD000AB07B0E809F0BB0B802DBF01FF2793588C
:100DE0005F4F2AF09E3F510568F061C0D0C05F3F61
:100DF000ECF3983EDCF3869577956795B795F79574
:100E00009F5FC9F7880F911D9695879597F908956B
:100E1000E1E0660F771F881FBB1F62177307840707
:100E2000BA0720F0621B730B840BBA0BEE1F88F716
:100E3000E0950895E89409C097FB3EF4909580955D
:100E4000709561957F4F8F4F9F4F9923A9F0F92F90
:100E500096E9BB279395F695879577956795B7950E
:100E6000F111F8CFFAF4BB0F11F460FF1BC06F5FF4
:100E70007F4F8F4F9F4F16C0882311F096E911C006
:100E8000772321F09EE8872F762F05C0662371F027
:100E900096E8862F70E060E02AF09A95660F771F3B
:100EA000881FDAF7880F9695879597F9089597F92F
:100EB0009F6780E870E060E008959FEF80EC089500
:100EC000DF93CF931F930F93FF92EF92DF927B01FB
:100ED0008C01689405C0DA2EEF0172D0FE01E8940F
:100EE000A5912591359145915591AEF3EF0185DEA0
:100EF000FE019701A801DA9479F7DF90EF90FF9057
:100F00000F911F91CF91DF91089500240A94161636
:100F1000170618060906089500240A9412161306E7
:100F2000140605060895092E0394000C11F4882375
:100F300052F0BB0F40F4BF2B11F460FF04C06F5F91
:100F40007F4F8F4F9F4F089557FD9058440F551F67
:100F500059F05F3F71F04795880F97FB991F61F03B
:100F60009F3F79F087950895121613061406551FB2
:100F7000F2CF4695F1DF08C0161617061806991F1E
:100F8000F1CF86957105610508940895E894BB2713
:100F900066277727CB0197F908959B01AC0160E0A4
:100FA00070E080E89FE3DECE0BD0BDCFAEDF28F04F
:100FB000B3DF18F0952309F07ACF7FCF1124E7CF64
:100FC000C3DFA0F3959FD1F3950F50E0551F629FAB
:100FD000F001729FBB27F00DB11D639FAA27F00D92
:100FE000B11DAA1F649F6627B00DA11D661F829FB9
:100FF0002227B00DA11D621F739FB00DA11D621F9E
:10100000839FA00D611D221F749F3327A00D611DBA
:10101000231F849F600D211D822F762F6A2F11249C
:101020009F5750408AF0E1F088234AF0EE0FFF1FEF
:10103000BB1F661F771F881F91505040A9F79E3F26
:10104000510570F034CFA3CF5F3FECF3983EDCF353
:10105000869577956795B795F795E7959F5FC1F763
:10106000FE2B880F911D9695879597F908959B0102
:10107000AC019ACFEF920F931F93CF93DF93E801C8
:1010800047FF02C034E101C034E0E42FFF27E7FD51
:10109000F095F7FF03C0F195E195F109E32E022FDA
:1010A0002E2FAE010E945B08CE01DF91CF911F91E0
:1010B0000F91EF9008956F927F929F92AF92BF929F
:1010C000CF92DF92EF92FF920F931F93CF93DF9314
:1010D000CDB7DEB729970FB6F894DEBF0FBECDBFF0
:1010E0006A01B22E102F0C3320F4FF24F394F00E7B
:1010F00002C04CE3F42E0F2D27E0AE014F5F5F4F8F
:101100000E94D9097981272F2970213031F0E1FC23
:1011100006C0E0FC06C060E005C06DE203C06BE203
:1011200001C060E2AE2DA07173FF36C0662311F0DE
:1011300084E001C083E08B1510F4B81A01C0B12C13
:10114000A1110BC0F6018B2D90E2882319F0919329
:101150008150FBCFCB0CD11CB12C662331F0F601B2
:10116000608396012F5F3F4F6901C6010396E2FE3F
:1011700005C02EE4F601208331E404C02EE6F6011A
:10118000208331E631832283FC012B2D30E22223A0
:10119000F1F131932150FBCF72FF40C0662311F073
:1011A00084E001C083E08B1510F4B81A01C0B12CA3
:1011B000A1110BC0F6018B2D90E2882319F09193B9
:1011C0008150FBCFCB0CD11CB12C662331F0F60142
:1011D000608396012F5F3F4F6901C6010396E2FECF
:1011E00007C029E4F60120832EE4218326E406C00B
:1011F00029E6F60120832EE6218326E62283FC01E0
:101200002B2D30E2222319F031932150FBCFFC012A
:10121000EB0DF11D10828EEF9FEFB7C0B1E06111B1
:1012200001C0B0E04B2F50E01816190624F49C01C1
:101230002F5F3F4F02C021E030E0240F351F112304
:1012400029F0412F50E04F5F5F4F02C040E050E077
:10125000420F531F2B2D30E04217530714F4B41ADA
:1012600001C0B12C2E2D287159F4F6012B2D30E23E
:10127000222319F031932150FBCFCB0CD11CB12C80
:10128000BB2331F0F601608396012F5F3F4F690168
:10129000A1110BC0F6012B2D30E3222319F031935D
:1012A0002150FBCFCB0CD11CB12CF80E0A81372F6B
:1012B0003071A32E74FF03C0013309F4FA941F1494
:1012C0002CF42F2D293018F028E001C021E0682FE0
:1012D000392F97FF02C060E030E0462F532F612C7A
:1012E000712C3EE2932EBC01621B71099B01DC0153
:1012F000A41BB50BE1E0F0E0EC0FFD1FAE0FBF1F2C
:10130000E12EF12CF194E194F1084F3FFFEF5F07DC
:1013100031F4F6019082B6016F5F7F4F6B01841745
:1013200095074CF02417350734F4BD01660D771D81
:10133000FB01118101C010E341505109FFEF6F1A09
:101340007F0AB6016F5F7F4F4E155F0524F0F601EF
:1013500010836B01DACF4817590739F4063320F4AC
:10136000053319F4A11001C011E3F6011083FB014C
:101370008B2D90E2882319F091938150FBCFFB01D4
:10138000EB0DF11D108280E090E029960FB6F894E5
:10139000DEBF0FBECDBFDF91CF911F910F91FF90A8
:1013A000EF90DF90CF90BF90AF909F907F906F9025
:1013B0000895283008F027E03327DA01990F311D0E
:1013C00087FD916000966105710539F432602E5FEA
:1013D0003D9330E32A95E1F708959F3F30F0803840
:1013E0007105610509F03C5F3C5F3D93913008F069
:1013F0008068911DDF93CF931F930F93FF92EF921D
:10140000192F987F9695E92F96959695E90FFF27C6
:10141000E452FF4F99273327EE24FF24A701E70169
:1014200005900894079428F4360FE71EF81E491F0C
:10143000511D660F771F881F991F0694A1F705900D
:10144000079428F4E70EF81E491F561FC11D770F99
:10145000881F991F661F0694A1F70590079428F42A
:10146000F80E491F561FC71FD11D880F991F661FF1
:10147000771F0694A1F70590079420F4490F561F93
:10148000C71FD81F990F661F771F881F0694A9F7DB
:1014900084911095177041F0D695C795579547954B
:1014A000F794E7941A95C1F7E2E8F0E06894159094
:1014B000159135916591959105907FE27395E118AD
:1014C000F10A430B560BC90BD009C0F7E10CF11E12
:1014D000431F561FC91FD01D7EF4703311F48A9527
:1014E000E6CFE894015030F0080F0AF40027021705
:1014F00008F4202F2395022F7A3328F079E37D9387
:101500002A95E9F710C07D932A9589F60694979558
:101510006795379517951794E118F10A430B560B09
:10152000C90BD00998F023957E9173957A3308F012
:1015300070E37C932013B8F77E9170617D9330F057
:10154000839571E37D9370E32A95E1F71124EF9081
:10155000FF900F911F91CF91DF91992787FD909573
:061560000895F894FFCF8E
:041566000D0A00006A
:00000001FF
